:100000000C942E000C944B000C944B000C94BC00F0
:100010000C944B000C944B000C944B000C944B0034
:100020000C944B000C944B000C944B000C944B0024
:100030000C944B000C944B000C944B000C944B0014
:100040000C944B000C944B000C944B000C944B0004
:100050000C944B000C944B000C944B0011241FBECD
:10006000CFEFD4E0DEBFCDBF12E0A0E0B1E0EAEF19
:10007000F1E102C005900D92AA37B107D9F722E04D
:10008000AAE7B2E001C01D92AD38B207E1F70E94C5
:10009000E9020C94FB080C940000FC010FB6F894E4
:1000A0006091890270918A0280918B0290918C02FA
:1000B0000FBE309721F0608371838283938308950C
:1000C0006630B0F596ED980F913568F4813608F0FA
:1000D0008F7D8A52E82FF0E0EE0FFF1FE65FFE4FA4
:1000E0002081318102C020E030E0A62FA17060FDA8
:1000F00002C070EF01C07FE06695E62FF0E0E451AA
:10010000FF4FAF014C5E5F4F822F8F70329522956B
:100110002F7023273F702327AA2311F08295807F19
:1001200090819723892B808335964E175F0761F75F
:10013000089591E0811101C090E0892F8195ECEE46
:10014000F0E08193E11591E0F907D9F7089580E097
:100150000E949900E7EEF0E080818F60808387EB5A
:100160008093E50087E08093E60080EC8093E400D4
:100170008081806E808308951F920F920FB60F9238
:1001800011248F939F931C9908C08091760184FF5E
:1001900004C095B181E0892785B983B18093760148
:1001A0009F918F910F900FBE0F901F9018950F93F6
:1001B0001F93CF93FC018081882369F08F010F5F2B
:1001C0001F4FC0E06C2F0E946000F80181918F01E9
:1001D000CF5F8111F7CFCF911F910F910895ECE67A
:1001E000F0E080818061808380E88DBB089584B1D8
:1001F0008F7384B985B1806C85B98DB1837F8DB9DA
:100200008EB18C608EB9089584B18F7184B96B986A
:1002100085B1806E85B9739A209A219A259A209A81
:10022000219A0E94EF00789408958091770190912F
:1002300078018930910564F42091790130917A0137
:10024000821793072CF4019690937801809377019D
:10025000089581E090E090937801809377018AE09F
:1002600090E090937A0180937901089589E891E074
:100270000E94D70008958091790190917A01181613
:1002800019061CF40E94D700089580E991E00E94AD
:10029000D700089583B19CB190959C708095807C27
:1002A000892B08958EB188700895CF93DF93EC0168
:1002B00060E772E00E948105892B09F48DC06CE62D
:1002C00072E0CE010E948105892B09F487C068E69F
:1002D00072E0CE010E948105892B09F481C064E699
:1002E00072E0CE010E948105892B09F47BC060E693
:1002F00072E0CE010E948105892B09F475C06CE57E
:1003000072E0CE010E948105892B09F46FC068E577
:1003100072E0CE010E948105892B09F469C064E571
:1003200072E0CE010E948105892B09F463C060E56B
:1003300072E0CE010E948105892B09F45DC06CE456
:1003400072E0CE010E948105892B09F457C068E450
:1003500072E0CE010E948105892B09F451C064E44A
:1003600072E0CE010E948105892B09F44BC060E444
:1003700072E0CE010E948105892B09F445C06CE32F
:1003800072E0CE010E948105892B09F43FC068E329
:1003900072E0CE010E948105892BD1F164E372E005
:1003A000CE010E948105892BA9F160E372E0CE01A4
:1003B0000E948105892B81F16CE272E0CE010E94DE
:1003C0008105892B59F168E272E0CE010E94810516
:1003D000892B31F180E025C081E023C081E021C07C
:1003E00081E01FC081E01DC081E01BC081E019C019
:1003F00082E017C082E015C082E013C082E011C025
:1004000082E00FC083E00DC083E00BC083E009C031
:1004100084E007C084E005C085E003C085E001C03A
:1004200085E0DF91CF9108959F92AF92BF92CF92D6
:10043000DF92EF92FF920F931F93CF93DF9380E0B1
:1004400090E00E944D00CB010E9476050E9471054C
:1004500062E370E00E94DC036C0184E090E00E94A3
:10046000040490937D0280937C020F2EF4E6EF2E1D
:10047000F12CF02D00E010E00F2EF9E29F2EF02D70
:100480000F2EF2E3AF2EF02D2DC08FE19EE40197E9
:10049000F1F700C000000330D0F4199D812D112424
:1004A000869586958695912F8A9D90191124892F7E
:1004B00090E0C816D90659F4CE010E94D700E09109
:1004C0007C02F0917D02E00FF11DC0830F5F0330CD
:1004D00029F01F5F2196C734D105B9F6E1E0EE1A85
:1004E000F10819F0C1E4D0E0D0CF80917C02909166
:1004F0007D02FC0113820E94D70080917C029091C2
:100500007D020E94550190E00097C9F0609177014B
:10051000709178014091790150917A01461B570BF7
:10052000869F9001879F300D969F300D1124CA0140
:10053000820F931F90937A01809379010EC080916E
:10054000790190917A012091770130917801821B95
:10055000930B90937A0180937901DF91CF911F9152
:100560000F91FF90EF90DF90CF90BF90AF909F9052
:100570000895CF9380917A0290917B02892B21F488
:1005800084E792E00E94D7000E944A01C82F0E948F
:100590005201C81799F085B18078C81789F085B1E4
:1005A0008074C81779F08EB18870C81769F08EB161
:1005B0008870C81759F00E94520109C081E007C035
:1005C00082E005C083E003C084E001C085E0CF91F4
:1005D00008950F931F93CF93DF93E3E8F2E08BE747
:1005E00091E093838283918380839583848385E9DB
:1005F00091E00E94A0050E94CE030E94A7008EEA0F
:1006000091E00E94D7000E9404010E94F700D1E00F
:1006100004EB11E001C0D82F0E94B902C82F1F922D
:100620008F931F930F930E948A052FEF80E792E02C
:10063000215080409040E1F700C000000F900F90E3
:100640000F900F90C23001F130F4CC2309F46DC04B
:10065000C13049F078C0C43009F445C088F1C530D4
:1006600009F452C070C08EEB91E00E94A0050E9478
:1006700014022FEF89E698E1215080409040E1F785
:1006800000C000008D2F5CC08FEC91E00E94A0059F
:100690000E9415012FEF89E698E12150804090409B
:1006A000E1F700C000000E9436012FEF89E698E1D3
:1006B000215080409040E1F700C000008D2F40C0E5
:1006C00080EE91E00E94A0050E9429010E9436015F
:1006D0002FEF89E698E1215080409040E1F700C07B
:1006E00000008D2F2DC083EF91E00E94A0050E9495
:1006F0003B012FEF83E294EF215080409040E1F7DF
:1007000000C000008D2F1CC086E092E00E94A00572
:100710000E9436012FEF89E698E1215080409040F9
:10072000E1F700C000008D2F0BC08AE192E00E942B
:10073000A00580917C0290917D020E949C0405C0DE
:10074000D11169CF02C0D11167CF80E090E0DF9175
:10075000CF911F910F910895CF93C82F8A3019F42C
:100760008DE00E94AC03E0ECF0E0808185FFFDCFDE
:10077000C093C60080E090E0CF910895CF93BC0174
:10078000E0ECF0E090819923ECF7C091C6008C2F4B
:100790000E94AC038C2F90E0CF9108951092C50079
:1007A00087E68093C4001092C00088E18093C10066
:1007B0008EE08093C200089597FB072E16F40094F4
:1007C00007D077FD09D00E94F00307FC05D03EF466
:1007D000909581959F4F0895709561957F4F0895ED
:1007E000AA1BBB1B51E107C0AA1FBB1FA617B70757
:1007F00010F0A61BB70B881F991F5A95A9F7809573
:100800009095BC01CD0108950F931F93CF93DF9373
:100810008230910510F482E090E0E0918102F09145
:10082000820220E030E0A0E0B0E0309719F1408192
:1008300051810281138148175907C8F08417950721
:1008400069F4109731F012960C93129713961C933B
:1008500027C0009381021093820222C02115310526
:1008600019F04217530718F49A01BD01EF01DF0197
:10087000F801DBCF21153105F9F0281B390B2430A5
:10088000310580F48A819B816115710521F0FB019E
:100890009383828304C09093820280938102FE013D
:1008A000329644C0FE01E20FF31F819391932250D0
:1008B0003109398328833AC020917F023091800228
:1008C000232B41F4209102013091030130938002E7
:1008D00020937F0220910001309101012115310503
:1008E00041F42DB73EB74091040150910501241BFE
:1008F000350BE0917F02F0918002E217F307A0F43C
:100900002E1B3F0B2817390778F0AC014E5F5F4F65
:100910002417350748F04E0F5F1F50938002409315
:100920007F028193919302C0E0E0F0E0CF01DF917C
:10093000CF911F910F910895CF93DF93009709F402
:1009400081C0FC01329713821282A0918102B09182
:100950008202109781F420813181820F931F2091B0
:100960007F02309180022817390751F5F0938002F9
:10097000E0937F0267C0ED0120E030E0CE17DF0793
:1009800040F44A815B819E0141155105F1F0EA0175
:10099000F5CFD383C28340815181840F951FC8173F
:1009A000D90759F488819981840F951F0296918304
:1009B00080838A819B81938382832115310529F469
:1009C000F0938202E09381023DC0E901FB83EA8358
:1009D00049915991C40FD51FEC17FD0761F480812F
:1009E0009181840F951F0296E90199838883828102
:1009F00093819B838A83E0E0F0E012968D919C9135
:100A00001397009719F0FD01DC01F7CF8D919C91B0
:100A100011979D012E5F3F4F820F931F20917F0200
:100A2000309180022817390769F4309729F4109221
:100A300082021092810202C013821282B09380025D
:100A4000A0937F02DF91CF9108958F929F92AF92F2
:100A5000BF92CF92DF92EF92FF92CF93DF93EC01A0
:100A6000688179818A819B81611571058105910574
:100A700021F464E279ED8BE597E02DE133EF41E07D
:100A800050E00E94610849015A019B01AC01A7EAAC
:100A9000B1E40E9480086B017C01ACEEB4EFA501CB
:100AA00094010E948E08DC01CB018C0D9D1DAE1DB2
:100AB000BF1DB7FF03C00197A109B0488883998380
:100AC000AA83BB839F77DF91CF91FF90EF90DF9058
:100AD000CF90BF90AF909F908F9008950E94250572
:100AE000089586E091E00E9425050895A0E0B0E019
:100AF0008093060190930701A0930801B093090128
:100B00000895FB01DC018D91019080190110D9F34A
:100B1000990B0895A0E0B0E0E0E9F5E00C94A3089B
:100B2000AE014B5F5F4FFA0161917191AF0180910E
:100B30008502909186020E94D005E2E00C94BF08E5
:100B40000F931F93CF93DF93E0918502F09186027C
:100B5000238121FF1BC08C01D0E0C0E0F80181910E
:100B60008F016091850270918602DB011896ED91EC
:100B7000FC911997882331F00995892B79F3DFEFE0
:100B8000CFEFECCF8AE00995892B19F08FEF9FEF1B
:100B900002C08D2F9C2FDF91CF911F910F9108954F
:100BA000ABE0B0E0E6EDF5E00C9493086C017B015E
:100BB0008A01FC0117821682838181FFCCC1CE019C
:100BC00001963C01F6019381F70193FD859193FF16
:100BD00081917F01882309F4BAC1853239F493FDEC
:100BE000859193FF81917F01853229F4B60190E0D0
:100BF0000E94C707E7CF912C212C312CFFE1F31580
:100C0000D8F08B3279F038F4803279F08332A1F465
:100C1000232D20611DC08D3261F0803369F4232DB6
:100C2000216016C0832D8260382EE32DE4603E2EB5
:100C30002AC0F32DF8601DC037FC2DC020ED280F11
:100C40002A3040F08E32B9F436FC81C1232D206465
:100C5000322E19C036FE06C08AE0989E200D11245F
:100C6000922E11C0EAE02E9E200D1124222EF32D8B
:100C7000F0623F2E08C08C3621F4832D8068382E18
:100C800002C0883641F4F70193FD859193FF81916D
:100C90007F018111B3CF982F9F7D9554933028F415
:100CA0000C5F1F4F9FE399830DC0833631F083376C
:100CB00071F0833509F059C021C0F8018081898322
:100CC0000E5F1F4F88248394912C530113C0280179
:100CD000F2E04F0E511CF801A080B18036FE03C037
:100CE000692D70E002C06FEF7FEFC5010E94BC0765
:100CF0004C018201F32DFF773F2E16C0280122E020
:100D0000420E511CF801A080B18036FE03C0692D4F
:100D100070E002C06FEF7FEFC5010E94B1074C0188
:100D2000F32DF0683F2E820133FC1BC0822D90E032
:100D300088169906B0F4B60180E290E00E94C707D9
:100D40002A94F4CFF50137FC859137FE81915F013C
:100D5000B60190E00E94C70721102A9421E0821A70
:100D600091088114910471F7E8C0843611F0893636
:100D700041F5F80137FE07C060817181828193815E
:100D80000C5F1F4F08C060817181072E000C880B1B
:100D9000990B0E5F1F4FF32DFF763F2E97FF09C073
:100DA00090958095709561957F4F8F4F9F4FF0681C
:100DB0003F2E2AE030E0A3010E940308882E861807
:100DC00045C0853731F4232D2F7EB22E2AE030E046
:100DD00025C0932D997FB92E8F36C1F018F4883530
:100DE00079F0B5C0803719F0883721F0B0C0E92F0D
:100DF000E061BE2EB4FE0DC0FB2DF460BF2E09C015
:100E000034FE0AC0292F2660B22E06C028E030E04A
:100E100005C020E130E002C020E132E0F801B7FE79
:100E200007C060817181828193810C5F1F4F06C072
:100E30006081718180E090E00E5F1F4FA3010E94EE
:100E40000308882E8618FB2DFF773F2E36FE0DC037
:100E5000232D2E7FA22E891458F434FE0BC032FCB1
:100E600009C0832D8E7EA82E05C0B82CA32C03C0EC
:100E7000B82C01C0B92CA4FE0FC0FE01E80DF11D75
:100E80008081803321F49A2D997EA92E09C0A2FE7B
:100E900006C0B394B39404C08A2D867809F0B39445
:100EA000A3FC11C0A0FE06C0B21488F4280C922C3A
:100EB0009B180EC0B21460F4B60180E290E00E946C
:100EC000C707B394F7CFB21418F42B1802C0982CAC
:100ED000212CA4FE10C0B60180E390E00E94C70759
:100EE000A2FE17C0A1FC03C088E790E002C088E51D
:100EF00090E0B6010CC08A2D867859F0A1FE02C0A0
:100F00008BE201C080E2A7FC8DE2B60190E00E9476
:100F1000C707891438F4B60180E390E00E94C70740
:100F20009A94F7CF8A94F301E80DF11D8081B60100
:100F300090E00E94C7078110F5CF222009F442CE2D
:100F4000B60180E290E00E94C7072A94F6CFF6012E
:100F50008681978102C08FEF9FEF2B96E2E10C9480
:100F6000AF08FC010590615070400110D8F78095E2
:100F700090958E0F9F1F0895FC0161507040019065
:100F80000110D8F7809590958E0F9F1F08950F93AD
:100F90001F93CF93DF93FB01238121FD03C08FEFCC
:100FA0009FEF2CC022FF16C04681578124813581D6
:100FB0004217530744F4A081B1819D012F5F3F4F39
:100FC000318320838C93268137812F5F3F4F378376
:100FD000268314C08B01EC01FB010084F185E02D18
:100FE0000995892BE1F6D80116968D919C9117975A
:100FF000019617969C938E931697CE01DF91CF9111
:101000001F910F910895FA01AA27283051F120313C
:1010100081F1E8946F936E7F6E5F7F4F8F4F9F4F8C
:10102000AF4FB1E03ED0B4E03CD0670F781F891FCE
:101030009A1FA11D680F791F8A1F911DA11D6A0F9C
:10104000711D811D911DA11D20D009F468943F914F
:101050002AE0269F11243019305D3193DEF6CF014E
:101060000895462F4770405D4193B3E00FD0C9F714
:10107000F6CF462F4F70405D4A3318F0495D31FD81
:101080004052419302D0A9F7EACFB4E0A6959795D4
:10109000879577956795BA95C9F7009761057105AA
:1010A00008959B01AC010A2E0694579547953795F4
:1010B0002795BA95C9F7620F731F841F951FA01D4E
:1010C0000895052E97FB1EF400940E94780857FDA2
:1010D00007D00E94CA0807FC03D04EF40C9478088D
:1010E00050954095309521953F4F4F4F5F4F089554
:1010F00090958095709561957F4F8F4F9F4F089584
:101100000E94EC08A59F900DB49F900DA49F800DA8
:10111000911D11240895B7FF0C9480080E94800847
:10112000821B930B08952F923F924F925F926F9282
:101130007F928F929F92AF92BF92CF92DF92EF9267
:10114000FF920F931F93CF93DF93CDB7DEB7CA1BE8
:10115000DB0B0FB6F894DEBF0FBECDBF09942A8813
:10116000398848885F846E847D848C849B84AA84BB
:10117000B984C884DF80EE80FD800C811B81AA8148
:10118000B981CE0FD11D0FB6F894DEBF0FBECDBF13
:10119000ED010895A1E21A2EAA1BBB1BFD010DC093
:1011A000AA1FBB1FEE1FFF1FA217B307E407F50717
:1011B00020F0A21BB30BE40BF50B661F771F881FF3
:1011C000991F1A9469F760957095809590959B0189
:1011D000AC01BD01CF010895A29FB001B39FC00132
:1011E000A39F700D811D1124911DB29F700D811D53
:0A11F0001124911D0895F894FFCF1B
:1011FA0000008D02200001000000510A802A000030
:10120A00000A510A000059551801111E111B500BF2
:10121A00411B411F1101511F511B0000000000001A
:10122A000000000000000000510F91394114913173
:10123A00411E410E411D500F802010154886401452
:10124A00780570855115510E5195518E2190812046
:10125A005015484450C528C02820095000000000F5
:10126A000000000000000101000A00000000030065
:10127A00000000AC03BE0300002564204141410088
:10128A004C4F53450077656C6F636F6D65207072C4
:10129A006F6A65637420352067616D652000484573
:1012AA006C6C6F002062746E3D2564200A00492030
:1012BA00616D20612063617365312075702000497A
:1012CA0020616D2061206361736532207570200092
:1012DA004920616D206120636173653320646F77F3
:1012EA006E20004920616D2061206361736534209E
:1012FA006C65667420004920616D2061206361730A
:10130A00653520726967687420004920616D206123
:10131A002063617365302000464544004441420021
:10132A00424544004241440041434500464441008D
:10133A00464144004341420046454200444542007A
:10134A00444145004341440041444300464143006F
:10135A004641450046414200444546004341460055
:0A136A004241430048454C4C4F003F
:00000001FF
