S00D000070726F6A342E7372656328
S11300000C942E000C944B000C944B000C94A900FF
S11300100C944B000C944B000C944B000C944B0030
S11300200C944B000C944B000C944B000C944B0020
S11300300C944B000C944B000C944B000C944B0010
S11300400C944B000C944B000C944B000C944B0000
S11300500C944B000C944B000C944B0011241FBEC9
S1130060CFEFD4E0DEBFCDBF12E0A0E0B1E0E2EE1E
S1130070FCE002C005900D92A83EB107D9F722E03A
S1130080A8EEB2E001C01D92A03FB207E1F70E94C2
S113009038020C946F060C9400006630B0F596EDAF
S11300A0980F913568F4813608F08F7D8A52E82FD5
S11300B0F0E0EE0FFF1FE050FF4F2081318102C0BE
S11300C020E030E0A62FA17060FD02C070EF01C0F7
S11300D07FE06695E62FF0E0E451FF4FAF014C5E00
S11300E05F4F822F8F70329522952F7023273F7098
S11300F02327AA2311F08295807F90819723892B4F
S1130100808335964E175F0761F7089591E081115A
S113011001C090E0892F8195ECEEF0E08193E11528
S113012091E0F907D9F7089580E00E948600E7EE90
S1130130F0E080818F60808387EB8093E50087E027
S11301408093E60080EC8093E4008081806E80835D
S113015008951F920F920FB60F9211248F939F93BD
S11301601C9908C080916C0184FF04C095B181E0A2
S1130170892785B983B180936C019F918F910F90EA
S11301800FBE0F901F9018950F931F93CF93FC01F0
S11301908081882369F08F010F5F1F4FC0E06C2FAF
S11301A00E944D00F80181918F01CF5F8111F7CF3B
S11301B0CF911F910F91089597B5890F87BD089529
S11301C0ECE6F0E080818061808380E88DBB089557
S11301D084B18F7384B985B1806C85B98DB1837F07
S11301E08DB98EB18C608EB90895249A089584B126
S11301F08F7184B96B9885B1806E85B9739A209A92
S1130200219A0E94E00078940895EAE7F0E0808162
S1130210806480830895EAE7F0E0808180618083D0
S11302200895CF93DF938BE791E00E947703CAE7A9
S1130230D0E0888180711F928F9389E991E09F9328
S11302408F930E946103888180710F900F900F90AB
S11302500F9090E0DF91CF910895CF93DF9383EADD
S113026091E00E9477030E940B010E9405010E9405
S11302701101892BE1F7C0917800D0917900DF93C7
S1130280CF9389EB91E09F938F930E9461030F902A
S11302900F900F900F908C2F9D2FDF91CF91089589
S11302A084E684BD16BC8FE087BD089583B19CB1FC
S11302B090959C708095807C892B0895641708F430
S11302C0642F681708F4682F862F0895CF93DF935F
S11302D084EC91E00E94C40086EF9FEF0E94DC0052
S11302E00E942D01EC0199270E94DC002FEF34E3DA
S11302F08CE0215030408040E1F700C0000084E1F0
S113030090E00E94DC000E942D019FEF24E33CE07A
S1130310915020403040E1F700C00000482F6C2F7E
S11303208091E8020E945E01C82FD0E01F928F9353
S11303308AEC91E09F938F930E9461030F900F903A
S11303400F900F900DC08FEF94E32CE081509040FC
S11303502040E1F700C0000084E190E00E94DC004E
S11303600E942D018C179D0774F3DF91CF9108959E
S1130370EF92FF920F931F93CF93DF938EED91E053
S11303809F938F930E94610382EF91E00E94C400C7
S11303900E942D019F938F9388EF91E09F938F93F9
S11303A00E94610386EF9FEF0E94DC000E942D01F2
S11303B0EC012FEF84E39CE0215080409040E1F772
S11303C000C0000084E190E00E94DC000E942D0146
S11303D07C012FEF84E39CE0215080409040E1F7C2
S11303E000C000004E2D6C2F8091E8020E945E0137
S11303F0082F10E0FF24FF92EF92DD27DF93CF93C5
S11304001F928F9381E192E09F938F930E946103E7
S11304108DB79EB70E960FB6F8949EBF0FBE8DBFD4
S1130420C9E4D2E019C00E942D019F938F93DF93FA
S1130430CF930E9461038FEF94E32CE081509040AE
S11304402040E1F700C0000084E190E00E94DC005D
S11304500F900F900F900F900E942D01081719070D
S113046014F3DF91CF911F910F91FF90EF900895B6
S11304708F929F92AF92BF92CF92DF92EF92FF92B0
S11304800F931F93CF93DF93EAEEF2E08DE691E0B2
S11304909383828391838083958384830E9453030F
S11304A08FE592E00E9477030E94940087E792E030
S11304B00E94C4002FEF39E688E12150304080408B
S11304C0E1F700C000000E94F7000E94E8008FEFEF
S11304D08AB99EEF9BB98BB90E9450010E94F50026
S11304E00E9456019EB19870891709F495C0912C09
S11304F00F2EFDE7EF2EF2E0FF2EF02D0CE812E0B8
S11305000F2EFEEAAF2EF2E0BF2EF02D0F2EF2EAF0
S1130510CF2EF2E0DF2EF02DCEB1C8700E9456012E
S1130520D82F1F928F93FF92EF920E9461031F9224
S1130530CF931F930F930E94610385B180782DB7E9
S11305403EB7285F3F4F0FB6F8943EBF0FBE2DBF96
S1130550D81319C093948EE992E00E94C4001F92AC
S11305609F92DF92CF920E9461033FEF89E698E168
S1130570315080409040E1F700C000000F900F9090
S11305800F900F901CC085B18074D81318C09A9432
S11305901F929F92BF92AF920E94610389EB92E0F7
S11305A00E94C4002FEF39E688E12150304080409A
S11305B0E1F700C000000F900F900F900F90992D5D
S11305C09170892E90FE05C08EEB92E00E94770315
S11305D004C08FEC92E00E9477032FEF39E688E1A4
S11305E0215030408040E1F700C00000DC1394CF7C
S11305F01F929F928EED92E09F938F930E946103CE
S11306000F900F900F900F90882019F00E946601B0
S113061010C00E94B8010DC01F921F928EED92E08F
S11306209F938F930E9461030F900F900F900F90F0
S1130630F0CF9FEF29E638E1915020403040E1F7B8
S113064000C0000080E090E0DF91CF911F910F91F6
S1130650FF90EF90DF90CF90BF90AF909F908F90DE
S11306600895CF93C82F8A3019F48DE00E94310386
S1130670E0ECF0E0808185FFFDCFC093C60080E010
S113068090E0CF910895CF93BC01E0ECF0E090812D
S11306909923ECF7C091C6008C2F0E9431038C2F54
S11306A090E0CF9108951092C50087E68093C4002E
S11306B01092C00088E18093C1008EE08093C20054
S11306C00895A0E0B0E0E7E6F3E00C944806AE013C
S11306D04B5F5F4FFA0161917191AF018091EC0220
S11306E09091ED020E94A703E2E00C9464060F933C
S11306F01F93CF93DF93E091EC02F091ED022381FD
S113070021FF1BC08C01D0E0C0E0F80181918F0172
S11307106091EC027091ED02DB011896ED91FC9171
S11307201997882331F00995892B79F3DFEFCFEFFF
S1130730ECCF8AE00995892B19F08FEF9FEF02C067
S11307408D2F9C2FDF91CF911F910F910895ABE0D6
S1130750B0E0EDEAF3E00C9438066C017B018A0109
S1130760FC0117821682838181FFCCC1CE010196E0
S11307703C01F6019381F70193FD859193FF8191EB
S11307807F01882309F4BAC1853239F493FD859138
S113079093FF81917F01853229F4B60190E00E9494
S11307A09E05E7CF912C212C312CFFE1F315D8F0D5
S11307B08B3279F038F4803279F08332A1F4232D2E
S11307C020611DC08D3261F0803369F4232D2160D6
S11307D016C0832D8260382EE32DE4603E2E2AC09D
S11307E0F32DF8601DC037FC2DC020ED280F2A30F2
S11307F040F08E32B9F436FC81C1232D2064322EB0
S113080019C036FE06C08AE0989E200D1124922E4F
S113081011C0EAE02E9E200D1124222EF32DF06249
S11308203F2E08C08C3621F4832D8068382E02C0F8
S1130830883641F4F70193FD859193FF81917F01FF
S11308408111B3CF982F9F7D9554933028F40C5F7A
S11308501F4F9FE399830DC0833631F0833771F0C6
S1130860833509F059C021C0F801808189830E5F66
S11308701F4F88248394912C530113C02801F2E064
S11308804F0E511CF801A080B18036FE03C0692DC3
S113089070E002C06FEF7FEFC5010E9493054C0129
S11308A08201F32DFF773F2E16C0280122E0420E6D
S11308B0511CF801A080B18036FE03C0692D70E0A0
S11308C002C06FEF7FEFC5010E9488054C01F32D34
S11308D0F0683F2E820133FC1BC0822D90E0881605
S11308E09906B0F4B60180E290E00E949E052A9435
S11308F0F4CFF50137FC859137FE81915F01B60194
S113090090E00E949E0521102A9421E0821A910809
S11309108114910471F7E8C0843611F0893641F5E9
S1130920F80137FE07C060817181828193810C5F79
S11309301F4F08C060817181072E000C880B990B32
S11309400E5F1F4FF32DFF763F2E97FF09C0909542
S11309508095709561957F4F8F4F9F4FF0683F2E24
S11309602AE030E0A3010E94DA05882E861845C0EB
S1130970853731F4232D2F7EB22E2AE030E025C0B6
S1130980932D997FB92E8F36C1F018F4883579F0FC
S1130990B5C0803719F0883721F0B0C0E92FE06185
S11309A0BE2EB4FE0DC0FB2DF460BF2E09C034FE74
S11309B00AC0292F2660B22E06C028E030E005C008
S11309C020E130E002C020E132E0F801B7FE07C0C8
S11309D060817181828193810C5F1F4F06C06081A9
S11309E0718180E090E00E5F1F4FA3010E94DA0541
S11309F0882E8618FB2DFF773F2E36FE0DC0232D43
S1130A002E7FA22E891458F434FE0BC032FC09C088
S1130A10832D8E7EA82E05C0B82CA32C03C0B82C21
S1130A2001C0B92CA4FE0FC0FE01E80DF11D8081A8
S1130A30803321F49A2D997EA92E09C0A2FE06C006
S1130A40B394B39404C08A2D867809F0B394A3FCBC
S1130A5011C0A0FE06C0B21488F4280C922C9B1876
S1130A600EC0B21460F4B60180E290E00E949E05CC
S1130A70B394F7CFB21418F42B1802C0982C212C7D
S1130A80A4FE10C0B60180E390E00E949E05A2FE81
S1130A9017C0A1FC03C088E790E002C088E590E09D
S1130AA0B6010CC08A2D867859F0A1FE02C08BE2F3
S1130AB001C080E2A7FC8DE2B60190E00E949E0591
S1130AC0891438F4B60180E390E00E949E059A945C
S1130AD0F7CF8A94F301E80DF11D8081B60190E00F
S1130AE00E949E058110F5CF222009F442CEB60162
S1130AF080E290E00E949E052A94F6CFF60186815A
S1130B00978102C08FEF9FEF2B96E2E10C9454067D
S1130B10FC010590615070400110D8F780959095C4
S1130B208E0F9F1F0895FC016150704001900110C9
S1130B30D8F7809590958E0F9F1F08950F931F935C
S1130B40CF93DF93FB01238121FD03C08FEF9FEF40
S1130B502CC022FF16C0468157812481358142175B
S1130B60530744F4A081B1819D012F5F3F4F31832E
S1130B7020838C93268137812F5F3F4F37832683D1
S1130B8014C08B01EC01FB010084F185E02D099573
S1130B90892BE1F6D80116968D919C9117970196B1
S1130BA017969C938E931697CE01DF91CF911F9148
S1130BB00F910895FA01AA27283051F1203181F1CB
S1130BC0E8946F936E7F6E5F7F4F8F4F9F4FAF4F51
S1130BD0B1E03ED0B4E03CD0670F781F891F9A1F64
S1130BE0A11D680F791F8A1F911DA11D6A0F711D18
S1130BF0811D911DA11D20D009F468943F912AE024
S1130C00269F11243019305D3193DEF6CF0108950B
S1130C10462F4770405D4193B3E00FD0C9F7F6CF3C
S1130C20462F4F70405D4A3318F0495D31FD405204
S1130C30419302D0A9F7EACFB4E0A695979587959A
S1130C4077956795BA95C9F7009761057105089579
S1130C509B01AC010A2E0694579547953795279525
S1130C60BA95C9F7620F731F841F951FA01D0895BD
S1130C702F923F924F925F926F927F928F929F92A8
S1130C80AF92BF92CF92DF92EF92FF920F931F9396
S1130C90CF93DF93CDB7DEB7CA1BDB0B0FB6F89447
S1130CA0DEBF0FBECDBF09942A88398848885F8487
S1130CB06E847D848C849B84AA84B984C884DF80F8
S1130CC0EE80FD800C811B81AA81B981CE0FD11DDC
S1130CD00FB6F894DEBF0FBECDBFED010895F894B2
S1050CE0FFCF40
S1130CE2510A802A0000000A510A000059551801CD
S1130CF2111E111B500B411B411F1101511F511B8E
S1130D020000000000000000000000000000510F7D
S1130D12913941149131411E410E411D500F8020E1
S1130D22101548864014780570855115510E519559
S1130D32518E219081205015484450C528C0282046
S1130D420950000000000000000000000100000043
S1130D5203000000003103430300004920616D20B9
S1130D6261742061646320636F6E766572742063BC
S1130D726F6D706C6574652000726573203D20256B
S1130D826420004920616D206174206164632061E4
S1130D92637175697265642000616463203D202576
S1130DA264200A00464C204C47006F7074696D61E0
S1130DB26C20616E676C65202564200A200049203E
S1130DC2616D2061742061766F6964206C69676863
S1130DD274005256204C4700206164635F61637162
S1130DE2756972652829203D202568687520200AC6
S1130DF2006F7074696D616C20616E676C65203D73
S1130E022564202C20707265765F616E676C6520A4
S1130E123D202564202C206E6578745F616E676CBA
S1130E2265203D202564200A006164635F6163716B
S1130E32756972652829203D202568687520007728
S1130E42656C636F6D6520746F2070726F6A3420F5
S1130E52736572766F200048456C6C6F006A6F7917
S1130E625F76616C203D202564200A007269676800
S1130E72745F636C69636B203D2025642000464CDB
S1130E8247006D6F6465203D202564200A006D6F64
S1130E926465203D2564200A0052564C4700666F63
S1130EA26C6C6F77696E67206C6967687420007276
S1130EB2657665727365206C6967687420006D6F6E
S10B0EC26465202564200A0088
S9030000FC
