S01700004763634170706C69636174696F6E312E737265635B
S11300000C947F000C949C000C949C000C949C0019
S11300100C949C000C949C000C949C000C949C00EC
S11300200C949C000C949C000C949C000C949C00DC
S11300300C949C000C949C000C949C000C949C00CC
S11300400C949C000C949C000C949C000C949C00BC
S11300500C949C000C949C000C949C006364696E4A
S11300606F70737578585B002D2D2D2D2D20506CDD
S11300706179206279204D454E55202D2D2D2D2D51
S11300800A312E506C6179206279204E756D62655B
S1130090720A322E53656172636820627920546952
S11300A0746C650A232E506C6561736520456E740B
S11300B0657220612043686F6963653A0A002D2DDB
S11300C02D2D2D204D41494E204D454E55202D2D91
S11300D02D2D2D0A312E4C6973742053686F77735C
S11300E00A322E506C61790A332E4372656174654D
S11300F00A2043686F6963653A20300A00001124BE
S11301001FBECFEFD4E0DEBFCDBF13E0A0E0B1E06F
S1130110E0EDF5E102C005900D92AE3DB107D9F7CF
S113012024E0AEEDB3E001C01D92A436B207E1F7BE
S11301300E947E030C94E60A0C940000BC0180E04B
S113014090E00E940704E0E0F0E001900020E9F76D
S1130150319782E590E391838083128280E090E07E
S11301600895CF93DF9300D0CDB7DEB79F938F93DD
S11301700E947B0440915E0450915F0460E870E04B
S11301808EED93E00E9439040F900F90892BA1F01B
S1130190CE0101969F938F938EE093E09F938F936C
S11301A08EED93E09F938F930E94EA040F900F903B
S11301B00F900F900F900F908A818F9389818F9366
S11301C081E193E09F938F930E9465048EED93E009
S11301D09F938F9382E293E09F938F930E94650491
S11301E00FB6F894DEBF0FBECDBF89810F900F907C
S11301F0DF91CF910895AF92BF92CF92DF92EF92A9
S1130200FF920F931F93CF93DF93CDB7DEB7299758
S11302100FB6F894DEBF0FBECDBF082F192F89E0AB
S1130220EEE4F3E0DE01119601900D928A95E1F778
S11302308EE293E00E94A104E02EF12E00E010E093
S1130240CE0101965C010F2EF3E4CF2EF3E0DF2EF6
S1130250F02DF70181917F011F928F93BF92AF928E
S11302601F930F93DF92CF920E9465040F5F1F4F7D
S11302700FB6F894DEBF0FBECDBF0430110549F7A9
S113028029960FB6F894DEBF0FBECDBFDF91CF9194
S11302901F910F91FF90EF90DF90CF90BF90AF90A0
S11302A00895CF92DF92EF92FF920F931F93CF9313
S11302B0DF93CDB7DEB7C65ED1090FB6F894DEBFC3
S11302C00FBECDBF7C01CDB6DEB684E1E6E6F3E039
S11302D0DE01119601900D928A95E1F78BE0EAE731
S11302E0F3E0DE01559601900D928A95E1F78EE0D8
S11302F0E5E8F3E0DE01909601900D928A95E1F72E
S113030087E1E3E9F3E0DE019E9601900D928A9580
S1130310E1F7CE0101960E94A10440915E04509140
S11303205F0460E870E08EED93E00E943904892B4D
S1130330A9F0CE018B539F4F9F938F9387E593E052
S11303409F938F938EED93E09F938F930E94D1049C
S11303500F900F900F900F900F900F90CE018096FA
S11303609F938F938B559F4F9F938F938AE593E031
S11303709F938F930E94650440915E0450915F04A3
S113038060E870E08EED93E00E9439040F900F90C6
S11303900F900F900F900F90892BA9F0CE018B5BDB
S11303A09F4F9F938F9387E593E09F938F938EED59
S11303B093E09F938F930E94D1040F900F900F901E
S11303C00F900F900F901F928AE08F930E94650404
S11303D0CE018B5B9F4F0E949E00FC010190002088
S11303E0E9F73197AF01481B590B4E7F0F900F90DF
S11303F08DB79EB7841B950B0FB6F8949EBF0FBEA6
S11304008DBF0DB71EB70F5F1F4F60E070E0C801CE
S11304100E94ED03CE0145960E94A10440915E0422
S113042050915F0463E070E08EED93E00E94390424
S1130430892BA9F0CE018B519F4F9F938F938EE010
S113044093E09F938F938EED93E09F938F930E94FD
S1130450D1040F900F900F900F900F900F90CB51ED
S1130460DF4FE881F981C55ED040EE0DFF1DA0810C
S1130470B0E080E4FE01EB53FF4F01900D928A95AA
S1130480E1F7CB51DF4F88819981C55ED040F701F8
S1130490E80FF91FA081B0E080E4F80101900D920B
S11304A08A95E1F7CE018E969F938F9387E593E02B
S11304B09F938F930E9465040F900F900F900F905D
S11304C0CB51DF4F8881C55ED0400FB6F894DEBEB5
S11304D00FBECDBECA51DF4F0FB6F894DEBF0FBEBC
S11304E0CDBFDF91CF911F910F91FF90EF90DF90DF
S11304F0CF900895EF92FF920F931F93CF93DF93C2
S113050000D000D0CDB7DEB79A8389837C836B8318
S1130510E12CF12C13C0B8010E94F403892B19F4C7
S11305208FEFE81AF80AAE014F5F5F4F62EC73E099
S113053089819A810E941204009769F7AE014D5F88
S11305405F4F62EC73E08B819C810E9412048C01EA
S1130550892B49F7C7010F900F900F900F90DF91EF
S1130560CF911F910F91FF90EF900895AF92BF929A
S1130570CF92DF92EF92FF920F931F93CF93DF936B
S11305806C018B01C0E0D0E0E12CF12CA12CB12C4A
S1130590F80161918F01662351F070E0C6010E9459
S11305A07A02E816F9061CF47C01AC2EBD2E2196C5
S11305B0C430D10569F78A2D9B2DDF91CF911F910E
S11305C00F91FF90EF90DF90CF90BF90AF90089580
S11305D00F931F93CF93DF93CDB7DEB7CD59D109D6
S11305E00FB6F894DEBF0FBECDBF8B012DE0EDE654
S11305F0F3E0DE01119601900D922A95E1F72EE0C9
S1130600E0EBF3E0DE011E9601900D922A95E1F7EE
S11306100E94B10090E081309105A1F5CE010196D0
S11306209F938F9387E593E09F938F930E947B041E
S113063040915E0450915F0460E270E08EED93E0BF
S11306400E9439040F900F900F900F90892BA1F006
S1130650CE014E969F938F938AEA93E09F938F9354
S11306608EED93E09F938F930E94D1040F900F908F
S11306700F900F900F900F90B801CE014E960E94EC
S1130680B60230C0029771F5CE010E969F938F93F8
S113069087E593E09F938F930E947B0440915E04CF
S11306A050915F0463E070E08EED93E00E943904A2
S11306B00F900F900F900F90892BA1F0CE014C96C4
S11306C09F938F938EE093E09F938F938EED93E0AF
S11306D09F938F930E94D1040F900F900F900F90CF
S11306E00F900F90C356DF4F0FB6F894DEBF0FBEC6
S11306F0CDBFDF91CF911F910F910895EEE5F4E006
S113070080E093E0938382839183808395838483C1
S11307100E94DF031F921F928EEB93E09F938F93AF
S11307200E9465040F900F900F900F908EEB90E055
S11307300E94B100823071F018F4813031F0F6CFAC
S1130740833099F08430B1F0F1CF80E091E00E94E1
S1130750FB00ECCF84EC93E00E94A10460E071E024
S113076088E690E00E94E802E1CF80E091E00E94F8
S11307705101DCCF81E090E00895CF93C82F8A30F7
S113078019F48DE00E94BD03E0ECF0E0808185FF68
S1130790FDCFC093C60080E090E0CF910895CF9341
S11307A0BC01E0ECF0E090819923ECF7C091C60025
S11307B08C2F0E94BD038C2F90E0CF91089510924E
S11307C0C50087E68093C4001092C00088E180933E
S11307D0C1008EE08093C2000895DC0101C06D93D6
S11307E041505040E0F70895FB01DC018D918134C4
S11307F01CF08B350CF4805E619161341CF06B3518
S11308000CF4605E861B611189F3990B0895FB015A
S1130810DC010D900020E9F7119701900D92002062
S1130820E1F70895FA01A191B081009719F41097A6
S1130830E1F0CD01DC01CD010D90002011F4C001E7
S113084013C0FB012191222319F02015D9F7F3CF0E
S1130850FB012191201519F41E92119606C0222342
S1130860C1F70D900020A1F7D001FA01A193B08344
S11308700895A0E0B0E0EFE3F4E00C94B90AFA01C3
S1130880238120FD03C080E090E01AC016161706ED
S1130890D4F77A018C01EB016C01C130D10569F008
S11308A0C7010E94BB098F3FFFEF9F0761F3F60169
S11308B081936F0121970A9781F7F6011082C8018D
S11308C0CDB7DEB7E8E00C94D50AA0E0B0E0EBE6E3
S11308D0F4E00C94BF0AAE014B5F5F4FFA016191E3
S11308E07191AF0180916004909161040E940305AD
S11308F0E2E00C94DB0AA0E0B0E0E1E8F4E00C9460
S1130900BD0AAE01495F5F4FDA016D917D91AD0182
S11309100EE514E0F80182819381DC0113962C9199
S11309201397286013962C930E940305D8011296FE
S1130930ED91FC9113972381277F2383E4E00C94AA
S1130940D90A0F931F93CF93DF93E0916004F09142
S11309506104238121FF1BC08C01D0E0C0E0F801B9
S113096081918F016091600470916104DB0118969C
S1130970ED91FC911997882331F00995892B79F32E
S1130980DFEFCFEFECCF8AE00995892B19F08FEFD9
S11309909FEF02C08D2F9C2FDF91CF911F910F915C
S11309A00895AEE0B0E0E7EDF4E00C94BF0A85E012
S11309B08C838B899C899A838983AE01495E5F4FBE
S11309C06D897E89CE0101960E9480082E96E2E010
S11309D00C94DB0AAEE0B0E0E0EFF4E00C94BF0A64
S11309E08DE08C838B899C899A838983AE01495ECF
S11309F05F4F6D897E89CE0101960E9480082E96F4
S1130A00E2E00C94DB0AABE0B0E0E9E0F5E00C9442
S1130A10AF0A6C017B018A01FC0117821682838173
S1130A2081FFCCC1CE0101963C01F6019381F7010F
S1130A3093FD859193FF81917F01882309F4BAC1C5
S1130A40853239F493FD859193FF81917F0185323D
S1130A5029F4B60190E00E94F909E7CF912C212CEA
S1130A60312CFFE1F315D8F08B3279F038F4803271
S1130A7079F08332A1F4232D20611DC08D3261F001
S1130A80803369F4232D216016C0832D8260382EB3
S1130A90E32DE4603E2E2AC0F32DF8601DC037FC20
S1130AA02DC020ED280F2A3040F08E32B9F436FCE8
S1130AB081C1232D2064322E19C036FE06C08AE07F
S1130AC0989E200D1124922E11C0EAE02E9E200D36
S1130AD01124222EF32DF0623F2E08C08C3621F40F
S1130AE0832D8068382E02C0883641F4F70193FDC7
S1130AF0859193FF81917F018111B3CF982F9F7DC1
S1130B009554933028F40C5F1F4F9FE399830DC0D5
S1130B10833631F0833771F0833509F059C021C031
S1130B20F801808189830E5F1F4F88248394912C60
S1130B30530113C02801F2E04F0E511CF801A080AC
S1130B40B18036FE03C0692D70E002C06FEF7FEF05
S1130B50C5010E94B0094C018201F32DFF773F2E9D
S1130B6016C0280122E0420E511CF801A080B18079
S1130B7036FE03C0692D70E002C06FEF7FEFC50140
S1130B800E94A5094C01F32DF0683F2E820133FC2D
S1130B901BC0822D90E088169906B0F4B60180E25D
S1130BA090E00E94F9092A94F4CFF50137FC85916D
S1130BB037FE81915F01B60190E00E94F90921108E
S1130BC02A9421E0821A91088114910471F7E8C0F3
S1130BD0843611F0893641F5F80137FE07C060818B
S1130BE07181828193810C5F1F4F08C06081718184
S1130BF0072E000C880B990B0E5F1F4FF32DFF7609
S1130C003F2E97FF09C090958095709561957F4F11
S1130C108F4F9F4FF0683F2E2AE030E0A3010E94DF
S1130C204E0A882E861845C0853731F4232D2F7E31
S1130C30B22E2AE030E025C0932D997FB92E8F364D
S1130C40C1F018F4883579F0B5C0803719F08837C9
S1130C5021F0B0C0E92FE061BE2EB4FE0DC0FB2D23
S1130C60F460BF2E09C034FE0AC0292F2660B22EBC
S1130C7006C028E030E005C020E130E002C020E1F9
S1130C8032E0F801B7FE07C06081718182819381EF
S1130C900C5F1F4F06C06081718180E090E00E5FA1
S1130CA01F4FA3010E944E0A882E8618FB2DFF7742
S1130CB03F2E36FE0DC0232D2E7FA22E891458F40C
S1130CC034FE0BC032FC09C0832D8E7EA82E05C0D5
S1130CD0B82CA32C03C0B82C01C0B92CA4FE0FC09F
S1130CE0FE01E80DF11D8081803321F49A2D997E57
S1130CF0A92E09C0A2FE06C0B394B39404C08A2DE1
S1130D00867809F0B394A3FC11C0A0FE06C0B21407
S1130D1088F4280C922C9B180EC0B21460F4B6010F
S1130D2080E290E00E94F909B394F7CFB21418F46A
S1130D302B1802C0982C212CA4FE10C0B60180E30D
S1130D4090E00E94F909A2FE17C0A1FC03C088E745
S1130D5090E002C088E590E0B6010CC08A2D867848
S1130D6059F0A1FE02C08BE201C080E2A7FC8DE233
S1130D70B60190E00E94F909891438F4B60180E3C1
S1130D8090E00E94F9099A94F7CF8A94F301E80D50
S1130D90F11D8081B60190E00E94F9098110F5CF20
S1130DA0222009F442CEB60180E290E00E94F909C3
S1130DB02A94F6CFF6018681978102C08FEF9FEFC8
S1130DC02B96E2E10C94CB0A20FD09C0FC0123FD23
S1130DD005C022FF02C07383628351834083089558
S1130DE044FD17C046FD17C0AB01BC01DA01FB018D
S1130DF0AA0FBB1FEE1FFF1F1094D1F74A0F5B1FF2
S1130E006E1F7F1FCB01BA01660F771F881F991FC2
S1130E1009C033E001C034E0660F771F881F991FB3
S1130E203150D1F7620F711D811D911D08950F93EB
S1130E301F93CF93DF938C01C8010E94BB09EC017F
S1130E4097FD08C00E949109892BB1F7B801CE0122
S1130E500E94350ACE01DF91CF911F910F91089521
S1130E608F929F92AF92BF92EF92FF920F931F9334
S1130E70CF93DF938C01D62F7A01B22E0E94BB0947
S1130E809C0133272B32310531F02D32310561F4C9
S1130E908B2D8068B82ED15011F480E068C0C80151
S1130EA00E94BB0997FDF9CFCB2DCD7F2B2D20734D
S1130EB009F58033F9F4AA24AA94AD0E09F443C0C9
S1130EC0C8010E94BB0997FD3EC09C012F7D3327BA
S1130ED02835310549F4C264D250A9F1C8010E94F1
S1130EE0BB0997FF07C02FC0B6FE02C0C26001C095
S1130EF0C261DA2D812C912C540120ED280F283069
S1130F0080F0C4FF04C0B8010E94350A19C02A3019
S1130F1040F0C6FFF8CF2F7D3FEE320F363098F702
S1130F2027504C2FC501B4010E94F0064B015C010F
S1130F30C260D15059F0C8010E94BB0997FFDDCFB0
S1130F40C1FD04C0AACF812C912C5401C7FF08C055
S1130F50B094A09490948094811C911CA11CB11C09
S1130F602C2FB501A401C7010E94E40681E0DF91A2
S1130F70CF911F910F91FF90EF90BF90AF909F90F2
S1130F808F900895A0E2B0E0E8ECF7E00C94B20A88
S1130F905C01962E7A01F9018E010F5F1F4F6801E3
S1130FA080E2D8011D928A95E9F7D50113968C90B9
S1130FB080E090E0612C712C30E061E070E083FC13
S1130FC0259183FE21918F01522E211103C080E0CF
S1130FD090E092C02E3511F4009751F1432F50E068
S1130FE0481759073CF42D3559F12D3219F477205F
S1130FF009F103C0772009F46AC0452D469546954A
S11310004695D601A40FB11D452D47708B0102C032
S1131010000F111F4A95E2F7A8015C91452B4C93F0
S1131020651459F0561410F45394E7CF5A94E5CF4D
S113103031E004C07724739401C0712C0196BFCFB2
S1131040772019F08E8180628E83311103C0882449
S1131050839417C0F6019E012F5D3F4F80818095D8
S113106081932E173F07D1F7F2CFE114F10429F051
S1131070D7018C93F70131967F019A94812C9920A2
S1131080F9F0C5010E94BB0997FD18C0FC01FF27B8
S113109023E0F595E7952A95E1F7EC0DFD1D2081F8
S11310A030E0AC014770552702C0359527954A9525
S11310B0E2F720FDDACFB5010E94350A811087CF0F
S11310C0E114F10411F0D7011C92C80115C0422F9C
S11310D0469546954695D601A40FB11D422F4770FB
S11310E08B0102C0000F111F4A95E2F7A8015C9121
S11310F0452B4C93622EA2CFA096EFE00C94CE0A1F
S1131100A0E0B0E0E6E8F8E00C94B20A6C01EB0170
S11311105A01FC0117821682512CF601E380FE016C
S1131120E3FC8591E3FE8191182FEF01882309F4F4
S1131130EEC090E00E949109892B21F0C6010E9423
S11311401707EBCF153241F4FE01E3FC1591E3FEE2
S11311501191EF01153281F4C6010E94BB0997FD7C
S1131160D4C0412F50E09C01332724173507A9F23E
S1131170B6010E94350ACBC01A3239F4E3FC15914A
S1131180E3FE1191EF0101E001C000E0F12C20ED3C
S1131190210F2A3080F402606F2D70E080E090E02F
S11311A040E20E94F006F62EFE01E3FC1591E3FEF8
S11311B01191EF01ECCF01FF03C0F11003C0A7C0F0
S11311C0FF24FA94183619F01C3651F010C0FE01B1
S11311D0E3FC1591E3FE1191EF01183641F4086028
S11311E00460FE01E3FC1591E3FE1191EF0111236C
S11311F009F48DC0612F70E08CE590E00E949A099B
S1131200892B09F484C000FD07C0F501808091801A
S1131210C50102965C0102C0812C912C1E3651F44A
S1131220F6014681578160E070E0202FC4010E94DE
S1131230E40673CF1336A9F401FD02C0FF24F3942E
S1131240C6010E94BB0997FD60C08114910429F076
S1131250F4018083C40101964C01FA94F110F0CF9B
S113126050C01B3559F49E01A4016F2DC6010E9484
S1131270C207EC01892B09F044C03EC0C6010E949C
S1131280170797FD42C01F3661F128F4143639F16F
S1131290193651F128C0133771F0153701F123C005
S11312A08114910429F0F4016082C40101964C0177
S11312B0FA94FF2071F0C6010E94BB093C0197FD1E
S11312C008C00E949109892B59F3B601C3010E94F9
S11312D0350A81149104A9F0F401108212C000624D
S11312E003C0006101C00064202FA4016F2DC6015A
S11312F00E943007811105C0F6018381807329F4AF
S113130006C000FD0ACF539408CF552019F0852D4F
S113131090E002C08FEF9FEFCDB7DEB7EFE00C9403
S1131320CE0A91110C94AC0A803219F08950855080
S1131330C8F70895FC010590061621F00020D9F79E
S1131340C00108953197CF010895FC0105906150C3
S113135070400110D8F7809590958E0F9F1F0895C7
S1131360FC016150704001900110D8F78095909570
S11313708E0F9F1F0895CF93DF93EC012B8120FFE5
S113138033C026FF0AC02F7B2B838E819F81019659
S11313909F838E838A8190E029C022FF0FC0E88159
S11313A0F9818081082E000C990B009719F42062B2
S11313B02B831AC03196F983E8830EC0EA85FB8536
S11313C0099597FF09C02B81019611F080E201C0B5
S11313D080E1822B8B8308C02E813F812F5F3F4F9A
S11313E03F832E83992702C08FEF9FEFDF91CF9128
S11313F008950F931F93CF93DF93FB01238121FD66
S113140003C08FEF9FEF2CC022FF16C04681578187
S1131410248135814217530744F4A081B1819D0191
S11314202F5F3F4F318320838C93268137812F5F39
S11314303F4F3783268314C08B01EC01FB010084EA
S1131440F185E02D0995892BE1F6D80116968D9149
S11314509C911797019617969C938E931697CE019D
S1131460DF91CF911F910F910895FB01238120FFFC
S113147012C026FD10C08F3F3FEF930761F08283B7
S11314802F7D2064238326813781215031093783BE
S11314902683992708958FEF9FEF0895FA01AA27CD
S11314A0283051F1203181F1E8946F936E7F6E5FA3
S11314B07F4F8F4F9F4FAF4FB1E03ED0B4E03CD051
S11314C0670F781F891F9A1FA11D680F791F8A1F34
S11314D0911DA11D6A0F711D811D911DA11D20D09B
S11314E009F468943F912AE0269F11243019305D55
S11314F03193DEF6CF010895462F4770405D419346
S1131500B3E00FD0C9F7F6CF462F4F70405D4A3392
S113151018F0495D31FD4052419302D0A9F7EACF5A
S1131520B4E0A6959795879577956795BA95C9F789
S113153000976105710508959B01AC010A2E06947C
S11315405795479537952795BA95C9F7620F731F35
S1131550841F951FA01D08959927882708952F9209
S11315603F924F925F926F927F928F929F92AF922F
S1131570BF92CF92DF92EF92FF920F931F93CF937C
S1131580DF93CDB7DEB7CA1BDB0B0FB6F894DEBF13
S11315900FBECDBF09942A88398848885F846E8439
S11315A07D848C849B84AA84B984C884DF80EE8083
S11315B0FD800C811B81AA81B981CE0FD11D0FB68C
S11315C0F894DEBF0FBECDBFED010895F894FFCFB0
S11315D03C454D5054593E000000000000000000FE
S11315E000000000000000000000000000000000F7
S11315F000000000000000000000000000000000E7
S113160000000000000000000000000000000000D6
S113161000000000000000000000000000000000C6
S113162000000000000000000000000000000000B6
S113163000000000000000000000000000000000A6
S11316400000000000000000000000000000000096
S11316503C454D5054593E0000000000000000007D
S11316600000000000000000000000000000000076
S11316700000000000000000000000000000000066
S11316800000000000000000000000000000000056
S11316900000000000000000000000000000000046
S11316A00000000000000000000000000000000036
S11316B00000000000000000000000000000000026
S11316C00000000000000000000000000000000016
S11316D03C454D5054593E000000000000000000FD
S11316E000000000000000000000000000000000F6
S11316F000000000000000000000000000000000E6
S113170000000000000000000000000000000000D5
S113171000000000000000000000000000000000C5
S113172000000000000000000000000000000000B5
S113173000000000000000000000000000000000A5
S11317400000000000000000000000000000000095
S11317503C454D5054593E0000000000000000007C
S11317600000000000000000000000000000000075
S11317700000000000000000000000000000000065
S11317800000000000000000000000000000000055
S11317900000000000000000000000000000000045
S11317A00000000000000000000000000000000035
S11317B00000000000000000000000000000000025
S11317C00000000000000000000000000000000015
S11317D00000000300000000BD03CF0300002564E7
S11317E00020757365725F6E756D203D2025642041
S11317F00A0062756666203D202573200A00202DAC
S11318002D2D2D6461746120626173652D2D2D2D44
S11318102D2D0025643A2025732025730A00746950
S1131820746C65203A20002573002573202D2D2D1E
S11318303E2025732000706C6561736520656E74AD
S11318406572207469746C650A0020696E64657839
S1131850203A200A00736F6E67206E6F7465733AC6
S1131860200A0020736F6E672061646420737563BF
S11318706365737366756C6C7900255B5E0A5D0045
S1131880656E74657220696E646578200A0025644B
S1131890200A20004920616D20676F696E672074FB
S11118A06F20706C6179206D656E75200000FC
S9030000FC
