:100000000C942E000C944B000C944B000C944B0061
:100010000C944B000C944B000C944B000C944B0034
:100020000C944B000C944B000C944B000C944B0024
:100030000C944B000C944B000C944B000C944B0014
:100040000C944B000C944B000C944B000C944B0004
:100050000C944B000C944B000C944B0011241FBECD
:10006000CFEFD4E0DEBFCDBF11E0A0E0B1E0E8E922
:10007000F8E002C005900D92AA36B107D9F721E049
:10008000AAE6B1E001C01D92A237B207E1F70E94D3
:1000900093000C944A040C9400000F931F93CF9389
:1000A000DF93CDB7DEB72C970FB6F894DEBF0FBE47
:1000B000CDBFECE6F1E020E031E0338322833183F1
:1000C0002083358324836EE071E00E94D600009780
:1000D000A1F000E111E09F938F931F930F930E9473
:1000E0002E016EE071E080E090E00E94D6000F905B
:1000F0000F900F900F90009771F740916C01509105
:100100006D016CE070E0CE0101960E94020180E07A
:100110002C960FB6F894DEBF0FBECDBFDF91CF9106
:100120001F910F910895ECE6F1E080E091E0938358
:10013000828391838083958384830E94C80085E1B4
:1001400091E00E944D0080E090E00895CF93C82F89
:100150008A3019F48DE00E94A600E0ECF0E0808186
:1001600085FFFDCFC093C60080E090E0CF91089559
:10017000CF93BC01E0ECF0E090819923ECF7C091C3
:10018000C6008C2F0E94A6008C2F90E0CF9108957E
:100190001092C50087E68093C4001092C00088E1E9
:1001A0008093C1008EE08093C20008954AE651E03A
:1001B0000E94DB000895FA01A191B081009719F423
:1001C0001097E1F0CD01DC01CD010D90002011F47C
:1001D000C00113C0FB012191222319F02015D9F78A
:1001E000F3CFFB012191201519F41E92119606C040
:1001F0002223C1F70D900020A1F7D001FA01A193AD
:10020000B0830895A0E0B0E0E8E0F1E00C941D04B4
:10021000FA01238120FD03C080E090E01AC0161689
:100220001706D4F77A018C01EB016C01C130D105BE
:1002300069F0C7010E943B038F3FFFEF9F0761F307
:10024000F60181936F0121970A9781F7F6011082D9
:10025000C801CDB7DEB7E8E00C943904A0E0B0E007
:10026000E4E3F1E00C942304AE014B5F5F4FFA012D
:1002700061917191AF0180916E0190916F010E9427
:100280004401E2E00C943F04ABE0B0E0EAE4F1E0CA
:100290000C9413046C017B018A01FC011782168205
:1002A000838181FFCCC1CE0101963C01F60193818F
:1002B000F70193FD859193FF81917F01882309F4D4
:1002C000BAC1853239F493FD859193FF81917F0105
:1002D000853229F4B60190E00E947903E7CF912C92
:1002E000212C312CFFE1F315D8F08B3279F038F462
:1002F000803279F08332A1F4232D20611DC08D322C
:1003000061F0803369F4232D216016C0832D826053
:10031000382EE32DE4603E2E2AC0F32DF8601DC078
:1003200037FC2DC020ED280F2A3040F08E32B9F472
:1003300036FC81C1232D2064322E19C036FE06C042
:100340008AE0989E200D1124922E11C0EAE02E9E84
:10035000200D1124222EF32DF0623F2E08C08C3682
:1003600021F4832D8068382E02C0883641F4F701CD
:1003700093FD859193FF81917F018111B3CF982FD8
:100380009F7D9554933028F40C5F1F4F9FE3998312
:100390000DC0833631F0833771F0833509F059C0D1
:1003A00021C0F801808189830E5F1F4F88248394C8
:1003B000912C530113C02801F2E04F0E511CF8019B
:1003C000A080B18036FE03C0692D70E002C06FEFDF
:1003D0007FEFC5010E9430034C018201F32DFF77AE
:1003E0003F2E16C0280122E0420E511CF801A080C9
:1003F000B18036FE03C0692D70E002C06FEF7FEF61
:10040000C5010E9425034C01F32DF0683F2E8201A7
:1004100033FC1BC0822D90E088169906B0F4B6011B
:1004200080E290E00E9479032A94F4CFF50137FC32
:10043000859137FE81915F01B60190E00E947903BA
:1004400021102A9421E0821A91088114910471F7F5
:10045000E8C0843611F0893641F5F80137FE07C04F
:1004600060817181828193810C5F1F4F08C0608120
:100470007181072E000C880B990B0E5F1F4FF32D17
:10048000FF763F2E97FF09C09095809570956195F6
:100490007F4F8F4F9F4FF0683F2E2AE030E0A3013F
:1004A0000E94B503882E861845C0853731F4232D68
:1004B0002F7EB22E2AE030E025C0932D997FB92EF1
:1004C0008F36C1F018F4883579F0B5C0803719F04F
:1004D000883721F0B0C0E92FE061BE2EB4FE0DC018
:1004E000FB2DF460BF2E09C034FE0AC0292F266000
:1004F000B22E06C028E030E005C020E130E002C0A6
:1005000020E132E0F801B7FE07C06081718182818D
:1005100093810C5F1F4F06C06081718180E090E085
:100520000E5F1F4FA3010E94B503882E8618FB2D76
:10053000FF773F2E36FE0DC0232D2E7FA22E89146D
:1005400058F434FE0BC032FC09C0832D8E7EA82ED9
:1005500005C0B82CA32C03C0B82C01C0B92CA4FE34
:100560000FC0FE01E80DF11D8081803321F49A2D2A
:10057000997EA92E09C0A2FE06C0B394B39404C00C
:100580008A2D867809F0B394A3FC11C0A0FE06C0A2
:10059000B21488F4280C922C9B180EC0B21460F48C
:1005A000B60180E290E00E947903B394F7CFB214D1
:1005B00018F42B1802C0982C212CA4FE10C0B601F0
:1005C00080E390E00E947903A2FE17C0A1FC03C063
:1005D00088E790E002C088E590E0B6010CC08A2D63
:1005E000867859F0A1FE02C08BE201C080E2A7FC30
:1005F0008DE2B60190E00E947903891438F4B601C7
:1006000080E390E00E9479039A94F7CF8A94F301F3
:10061000E80DF11D8081B60190E00E947903811000
:10062000F5CF222009F442CEB60180E290E00E948C
:1006300079032A94F6CFF6018681978102C08FEF65
:100640009FEF2B96E2E10C942F04FC010590615082
:1006500070400110D8F7809590958E0F9F1F0895D8
:10066000FC016150704001900110D8F78095909581
:100670008E0F9F1F0895CF93DF93EC012B8120FFF6
:1006800033C026FF0AC02F7B2B838E819F8101966A
:100690009F838E838A8190E029C022FF0FC0E8816A
:1006A000F9818081082E000C990B009719F42062C3
:1006B0002B831AC03196F983E8830EC0EA85FB8547
:1006C000099597FF09C02B81019611F080E201C0C6
:1006D00080E1822B8B8308C02E813F812F5F3F4FAB
:1006E0003F832E83992702C08FEF9FEFDF91CF9139
:1006F00008950F931F93CF93DF93FB01238121FD77
:1007000003C08FEF9FEF2CC022FF16C04681578198
:10071000248135814217530744F4A081B1819D01A2
:100720002F5F3F4F318320838C93268137812F5F4A
:100730003F4F3783268314C08B01EC01FB010084FB
:10074000F185E02D0995892BE1F6D80116968D915A
:100750009C911797019617969C938E931697CE01AE
:10076000DF91CF911F910F910895FA01AA272830A8
:1007700051F1203181F1E8946F936E7F6E5F7F4F6E
:100780008F4F9F4FAF4FB1E03ED0B4E03CD0670FEA
:10079000781F891F9A1FA11D680F791F8A1F911D3D
:1007A000A11D6A0F711D811D911DA11D20D009F48D
:1007B00068943F912AE0269F11243019305D3193CF
:1007C000DEF6CF010895462F4770405D4193B3E0B8
:1007D0000FD0C9F7F6CF462F4F70405D4A3318F05F
:1007E000495D31FD4052419302D0A9F7EACFB4E010
:1007F000A6959795879577956795BA95C9F70097C8
:100800006105710508959B01AC010A2E0694579568
:10081000479537952795BA95C9F7620F731F841FBF
:10082000951FA01D08952F923F924F925F926F9255
:100830007F928F929F92AF92BF92CF92DF92EF9270
:10084000FF920F931F93CF93DF93CDB7DEB7CA1BF1
:10085000DB0B0FB6F894DEBF0FBECDBF09942A881C
:10086000398848885F846E847D848C849B84AA84C4
:10087000B984C884DF80EE80FD800C811B81AA8151
:10088000B981CE0FD11D0FB6F894DEBF0FBECDBF1C
:08089000ED010895F894FFCF7B
:100898000000000300000000A600B80000007C0073
:1008A8002573200A002D2D2D2D2D204D41494E2038
:1008B8004D454E55202D2D2D2D2D7C312E4C6973F7
:1008C800742053686F77737C322E506C6179205393
:1008D800686F777C332E4372656174652053686F47
:1008E800777C506C6561736520456E746572206114
:0A08F8002043686F6963653A7C00D5
:00000001FF
